:060000000A128A11EB2F29
:10000C000800F2007208F1000130F007FF307007B1
:10001C0084000A168A110A200A128A11FF0071083C
:10002C0084000130F1077F08831780000008031D4E
:10003C00202821280A280800F80078080319272806
:10004C0028283C28F31F2B282C283C287009FA0060
:10005C007109FB007209FC007309FD00FA0A03190F
:10006C00FB0A0319FC0A0319FD0A44287308FD0056
:10007C007208FC007108FB007008FA007308720427
:10008C0071047004031D4B284C2855280030F300D4
:10009C000030F2000030F1000030F000D92896302A
:1000AC00F90065280130FF007F08F90701300310C3
:1000BC00FD0CFC0CFB0CFA0CFF3E031D5D28FE3006
:1000CC007D05031D6A286B28582887280130FF00FE
:1000DC007F08F9070130FA07003003180130FB07DD
:1000EC00003003180130FC07003003180130FD0705
:1000FC0001300310FD0CFC0CFB0CFA0CFF3E031D35
:10010C007F28FF307D05031D8C288D286C289928AD
:10011C000130F9020130F4000310FA0DFB0DFC0D57
:10012C00FD0DF40B9228FC1B9C289D28A328023063
:10013C0079020318A228A3288E287918A628A728A4
:10014C00AF28FF30FA05FF30FB057F30FC05FF3090
:10015C00FD050310F90C7908F400F501F601F7011F
:10016C0018300310F40DF50DF60DF70DFF3E031DC1
:10017C00B7287408FA047508FB047608FC047708A1
:10018C00FD0478080319CB28CC28D128F31FCF28DD
:10019C00D028D128FD177D08F3007C08F2007B08DD
:1001AC00F1007A08F00008003F3083160313D000EA
:1001BC008030CF000030CE000030CD00B401B5014E
:1001CC004C08F3004B08F2004A08F1004908F00013
:1001DC000030F7000030F6000030F5000030F4007D
:1001EC000A168A11D2200A128A110318FE28FF2837
:1001FC00C82A1029831603133B08D0003A08CF00F5
:10020C003908CE003808CD000130B4070318B50A00
:10021C000030B507413083120313A3002030A20035
:10022C000030A1000030A000831603135008831285
:10023C000313A700831603134F0883120313A6009E
:10024C00831603134E0883120313A500831603139E
:10025C004D0883120313A4000A128A15BB240A1238
:10026C008A1183120313230883160313BB00831212
:10027C000313220883160313BA00831203132108F5
:10028C0083160313B9008312031320088316031378
:10029C00B8004908A0004A08A1004B08A2004C086D
:1002AC00A3003808A0023908031C390F5E295F2906
:1002BC00A1023A08031C3A0F64296529A2023B08E3
:1002CC00031C3B0F6A296B29A3022308F3002208A5
:1002DC00F2002108F1002008F0000A168A15DC262D
:1002EC000A128A11F31B8A297308031D8B297208C1
:1002FC00031D8B297108031D8B2902307002031D0D
:10030C008729031C8A298B290029831603133B0890
:10031C0083120313BD00831603133A0883120313CD
:10032C00BC0083160313390883120313BB00831616
:10033C000313380883120313BA00831603134C08F3
:10034C0083120313C100831603134B088312031388
:10035C00C000831603134A0883120313BF008316CD
:10036C000313490883120313BE000A168A11C02214
:10037C000A128A11031CC329C429002983160313EA
:10038C004908A0004A08A1004B08A2004C08A30091
:10039C004D08A0024E08031C4E0FD529D629A102E8
:1003AC004F08031C4F0FDB29DC29A2025008031C49
:1003BC00500FE129E229A3022308F3002208F200DE
:1003CC002108F1002008F0000A168A15DC260A1212
:1003DC008A11F31B022A7308031D012A7208031DDC
:1003EC00012A7108031D012A02307002031DFE2927
:1003FC000318012A022A8F2A831603135008CC00F3
:10040C004F08CB004E08CA004D08C900C82A41301D
:10041C0083120313BD002030BC000030BB00003041
:10042C00BA0083160313500883120313C1008316FA
:10043C0003134F0883120313C000831603134E08D3
:10044C0083120313BF00831603134D088312031387
:10045C00BE000A128A1588200A128A11831203130D
:10046C003D0883160313D000831203133C08831634
:10047C000313CF00831203133B0883160313CE0020
:10048C00831203133A0883160313CD00FF30B4070D
:10049C000318B50AFF30B5074908A0004A08A100A7
:1004AC004B08A2004C08A3004D08A0024E08031CE8
:1004BC004E0F612A622AA1024F08031C4F0F672AB4
:1004CC00682AA2025008031C500F6D2A6E2AA30240
:1004DC002308F3002208F2002108F1002008F000A4
:1004EC000A168A15DC260A128A11F31B8E2A730847
:1004FC00031D8D2A7208031D8D2A7108031D8D2A78
:10050C0002307002031D8A2A03188D2A8E2A8F2A24
:10051C00022A831603134C0883120313BD0083169F
:10052C0003134B0883120313BC00831603134A08EE
:10053C0083120313BB00831603134908831203139E
:10054C00BA0083160313500883120313C1008316D9
:10055C0003134F0883120313C000831603134E08B2
:10056C0083120313BF00831603134D088312031366
:10057C00BE000A168A11C0220A128A11031CC72A4D
:10058C00C82A0D2A831203136C0883160313AD00BB
:10059C002D08AE0083160317B41BD52AD62AE12AE0
:1005AC00340883160313A700831603173308831626
:1005BC000313A600E72A063083160313A6000030A7
:1005CC00A7002708B2002608B1000130B1070318B4
:1005DC00B20A0030B20766302E06031DF62AF72A3F
:1005EC00112BB51FFA2AFB2A052B3F30D000803087
:1005FC00CF000030CE000030CD00B401B501673023
:10060C002D0603190A2B0B2B112B3408B1070318D9
:10061C00B20A3508B207BC01BD014C08C1004B0839
:10062C00C0004A08BF004908BE005008BB004F0874
:10063C00BA004E08B9004D08B8004A2C83160313B3
:10064C00500883120313BD00831603134F08831243
:10065C000313BC00831603134E0883120313BB0051
:10066C00831603134D0883120313BA008316031366
:10067C00410883120313C10083160313400883122D
:10068C000313C000831603133F0883120313BF0028
:10069C00831603133E0883120313BE000A128A1535
:1006AC0088200A128A11831203133D08D7003C08D4
:1006BC00D6003B08D5003A08D4000A168A116423E8
:1006CC000A128A1183120313570883160313C500E9
:1006DC0083120313560883160313C40083120313E7
:1006EC00550883160313C30083120313540883168F
:1006FC000313C2004508F3004408F2004308F1005C
:10070C004208F0000A128A1512200A128A11710886
:10071C0083160313B0007008AF0050088312031344
:10072C00A700831603134F0883120313A600831626
:10073C0003134E0883120313A500831603134D08ED
:10074C0083120313A40083160313450883120313A7
:10075C00A30083160313440883120313A200831609
:10076C000313430883120313A100831603134208D7
:10077C0083120313A0000A128A15BB240A128A11D1
:10078C00831203132308BD002208BC002108BB0000
:10079C002008BA0083160313410883120313C10007
:1007AC0083160313400883120313C000831603132C
:1007BC003F0883120313BF00831603133E088312F2
:1007CC000313BE000A168A1512270A128A11831205
:1007DC0003133D0883160313C100831203133C0853
:1007EC0083160313C000831203133B0883160313F1
:1007FC00BF00831203133A0883160313BE00413063
:10080C0083120313BD002030BC000030BB0000304D
:10081C00BA0083160313500883120313C100831606
:10082C0003134F0883120313C000831603134E08DF
:10083C0083120313BF00831603134D088312031393
:10084C00BE000A128A1588200A128A118312031319
:10085C003D0883160313D000831203133C08831640
:10086C000313CF00831203133B0883160313CE002C
:10087C00831203133A0883160313CD000130BC070F
:10088C000318BD0A0030BD073D08803AA0003208AD
:10089C00803A2002031D542C31083C02031C572CB7
:1008AC00582C242B403083120313A300A030A20039
:1008BC000030A1000030A0008316031350088312EF
:1008CC000313A700831603134F0883120313A60008
:1008DC00831603134E0883120313A5008316031308
:1008EC004D0883120313A4000A128A15BB240A12A2
:1008FC008A1183120313230883160313C500831272
:10090C000313220883160313C40083120313210854
:10091C0083160313C30083120313200883160313D7
:10092C00C200410883120313BD0083160313400851
:10093C0083120313BC00831603133F0883120313A3
:10094C00BB00831603133E0883120313BA008316ED
:10095C000313450883120313C100831603134408C1
:10096C0083120313C000831603134308831203136B
:10097C00BF0083160313420883120313BE000A162A
:10098C008A11C0220A128A110318CD2CCE2CD92C14
:10099C00003083160313C5000030C4000030C300C0
:1009AC000030C200022D831603134108F3004008E7
:1009BC00F2003F08F1003E08F0004508F70044083B
:1009CC00F6004308F5004208F4000A168A11D220FA
:1009DC000A128A11031CF32CF42C022D8316031318
:1009EC002F18F92CFA2C022D0030C5000030C40051
:1009FC000030C3000030C200831603134508F30017
:100A0C004408F2004308F1004208F0004C08F700DB
:100A1C004B08F6004A08F5004908F4000A128A153A
:100A2C0057220A128A11730883160313C100720825
:100A3C00C0007108BF007008BE0041088312031388
:100A4C00BD0083160313400883120313BC008316E6
:100A5C0003133F0883120313BB00831603133E08D2
:100A6C0083120313BA004130A3002030A2000030DF
:100A7C00A1000030A000831603133B08831203135C
:100A8C00A700831603133A0883120313A6008316D8
:100A9C000313390883120313A500831603133808B4
:100AAC0083120313A4000A128A15BB240A128A119A
:100ABC00831203132308C1002208C0002108BF00C1
:100ACC002008BE000A168A11C0220A128A11031CC1
:100ADC00702D712DC42D013083160313B407031828
:100AEC00B50A0030B507413083120313A300203040
:100AFC00A2000030A1000030A000831603133B08B5
:100B0C0083120313A700831603133A0883120313EB
:100B1C00A60083160313390883120313A50083164A
:100B2C000313380883120313A4000A128A15BB247A
:100B3C000A128A1183120313230883160313BB00B2
:100B4C0083120313220883160313BA0083120313B0
:100B5C00210883160313B90083120313200883168C
:100B6C000313B80066302E06031DBD2DBE2DC42DFB
:100B7C000130B1070318B20A0030B2078316031311
:100B8C003B08D0003A08CF003908CE003808CD0019
:100B9C003508A5003408A400AC01A801A901BC01CA
:100BAC00BD01762F83160313500883120313BD0067
:100BBC00831603134F0883120313BC00831603130D
:100BCC004E0883120313BB00831603134D088312C4
:100BDC000313BA0083160313410883120313C100D5
:100BEC0083160313400883120313C00083160313E8
:100BFC003F0883120313BF00831603133E088312AE
:100C0C000313BE000A128A1588200A128A11831255
:100C1C0003133D08D7003C08D6003B08D5003A0822
:100C2C00D4000A168A1164230A128A118312031340
:100C3C00570883160313C500831203135608831633
:100C4C000313C40083120313550883160313C30044
:100C5C0083120313540883160313C2004508F300D0
:100C6C004408F2004308F1004208F0000A128A1509
:100C7C0012200A128A117108803AFF0080307F021C
:100C8C00031D4A2E0A30700203184D2E4E2E642E70
:100C9C00831603134508F3004408F2004308F100DF
:100CAC004208F0000A128A1512200A128A117108E1
:100CBC0083160313B0007008AF006A2E0930831638
:100CCC000313AF000030B0002C08031D6E2E6F2EE6
:100CDC00A02EA51F722E732EA02E4708103E840046
:100CEC002E30831780000130C7070318C80A003064
:100CFC00C807FF30B6070318B70AFF30B707AC01B7
:100D0C00AC0AA02E4708103E8400303083178000B8
:100D1C000130C7070318C80A0030C807FF30B607F0
:100D2C000318B70AFF30B707FF30A8070318A90A42
:100D3C00FF30A90728082904031DA52EA62E882EEE
:100D4C004708103E84002F08303E83178000013086
:100D5C00C7070318C80A0030C807FF30B6070318C6
:100D6C00B70AFF30B707500883120313A700831686
:100D7C0003134F0883120313A600831603134E08A4
:100D8C0083120313A500831603134D088312031358
:100D9C00A40083160313450883120313A3008316C0
:100DAC000313440883120313A2008316031343088E
:100DBC0083120313A1008316031342088312031337
:100DCC00A0000A128A15BB240A128A11831203137B
:100DDC002308BD002208BC002108BB002008BA0073
:100DEC0083160313410883120313C10083160313E4
:100DFC00400883120313C000831603133F088312A9
:100E0C000313BF00831603133E0883120313BE00A3
:100E1C000A168A1512270A128A11831203133D0827
:100E2C0083160313C100831203133C0883160313A8
:100E3C00C000831203133B0883160313BF008312F5
:100E4C0003133A0883160313BE00413083120313B5
:100E5C00BD002030BC000030BB000030BA0083164F
:100E6C000313500883120313C100831603134F0896
:100E7C0083120313C000831603134E08831203134B
:100E8C00BF00831603134D0883120313BE000A120E
:100E9C008A1588200A128A11831203133D088316BF
:100EAC000313D000831203133C0883160313CF00E3
:100EBC00831203133B0883160313CE008312031310
:100ECC003A0883160313CD00FF30A4070318A50AB4
:100EDC00FF30A5070130BC070318BD0A0030BD0761
:100EEC003D08803AA0003208803A2002031D802F72
:100EFC0031083C020318832F842F932F831603137E
:100F0C004808803AFF0080307F02031D8F2F4B3042
:100F1C004702031C922F932FD82D4F3083160313A7
:100F2C00BC000030BD003C08103E840083178001DB
:100F3C001030F0004808F2004708F1001030A00013
:100F4C004708A0023C0820070A168A155B270A12DC
:100F5C008A118316031347083C02C7004808031C78
:100F6C00480A3D02C8004608031DBD2FBF2F0130A3
:100F7C00C02F0030A000A1012008BC002108BD003A
:100F8C0046080319CA2FCB2FD72FFF30C7070318DA
:100F9C00C80AFF30C8074708103E8400460883176C
:100FAC0080003C08B6023D08031CB703B702470893
:100FBC00103EFB003708FD003608FC0033080A160B
:100FCC008A1198200A128A1108008317A93084000C
:100FDC00B6300A168A15B0260A128A11103084000F
:100FEC0060300A168A15B0260A128A1183010A1675
:100FFC008A11A72E2130F200F20B02288312031360
:10100C001F151F190A280B2807281E08F100831624
:10101C0003131E08F00008000310720D730DF90085
:10102C007908031D1A281B2824280030F3000030EF
:10103C00F2000030F1000030F00087287008F40056
:10104C007108F5007208F6007308F7001F300310E2
:10105C00F70CF60CF50CF40CFF3E031D2D28740850
:10106C00F800F217FF30F005FF30F105FF30F20504
:10107C000030F3059630F902F91F45284628602800
:10108C007908803A973E03184C284D284E281B2887
:10109C0001300310F30CF20CF10CF00CFF3E031DAD
:1010AC004F280130FF007F08F907031D5E285F28D9
:1010BC004E28772820307902031C65286628722870
:1010CC001B280130F4000310F00DF10DF20DF30D9F
:1010DC00F40B69280130F9027908031D762877286A
:1010EC006728780803197B287C288728F009F109E0
:1010FC00F209F309F00A0319F10A0319F20A0319A8
:10110C00F30A08008312031341088039CB0041080D
:10111C00C2004207D200C01F94289528962852146A
:10112C00520803199A289B28AB28520A031D9F28A2
:10113C00A028A8280030C1000030C0000030BF003B
:10114C000030BE00C017C101B3280030C100003010
:10115C00C0000030BF000030BE003D088039FF00E9
:10116C007F08CB063D08C2004207D300BC1FBF2836
:10117C00C028C128531453080319C528C628D628DB
:10118C00530A031DCA28CB28D3280030BD000030D9
:10119C00BC000030BB000030BA00BC17BD01DE281B
:1011AC000030BD000030BC000030BB000030BA0085
:1011BC003D083C043B043A04031DE528E628FF28BF
:1011CC000030C1000030C0000030BF000030BE0055
:1011DC008030C0047F30C1044B08FF007F08C1047D
:1011EC004108BD004008BC003F08BB003E08BA00E7
:1011FC00562A5208031D032904290D290030BD006D
:10120C000030BC000030BB000030BA00562A520837
:10121C00C200C3014308C50053084202C400031CAA
:10122C00C50344087F3ECC0045080318013E003E30
:10123C00CD004108CA004008C9003F08C8003E085C
:10124C00C7000030C1000030C0000030BF000030CB
:10125C00BE000030D1000030D0000030CF00003094
:10126C00CE00D3018329530803193D293E295E2959
:10127C000130C2000310C70DC80DC90DCA0DC20B39
:10128C0040290130C2000310BE0DBF0DC00DC10DB1
:10129C00C20B4929D11F5329542955293E14013019
:1012AC00C2000310CE0DCF0DD00DD10DC20B57299E
:1012BC003D084A02031D6C293C084902031D6C2998
:1012CC003B084802031D6C293A084702031C6F298E
:1012DC0070297F2951173A08C7023B08031C3B0FA2
:1012EC00C8023C08031C3C0FC9023D08031C3D0FFF
:1012FC00CA020130FF007F08D3071A305302031CC7
:10130C008829892939294A084904480447040319BA
:10131C0090299129B0294E14B0290130C200031034
:10132C00BE0DBF0DC00DC10DC20B9529D11F9F293C
:10133C00A029A1293E140130C2000310CE0DCF0DFF
:10134C00D00DD10DC20BA329FF30CC070318CD0A49
:10135C00FF30CD07C01FB329B4299329D301D11F66
:10136C00B829B929D529FF304E05C200FF304F05E9
:10137C00C300FF305005C4007F305105C50045083F
:10138C004404430442040319CC29CD29D029D301A8
:10139C00D30AD5293E1CD329D429D529CD295308C4
:1013AC000319D929DA290B2A0130BE07003003189A
:1013BC000130BF07003003180130C007003003189C
:1013CC000130C107411CEB29EC290B2A3E08C20055
:1013DC003F08C3004008C4004108C5000130C600E6
:1013EC00450DC50CC40CC30CC20CC60BF629450824
:1013FC00C1004408C0004308BF004208BE000130D1
:10140C00CC070318CD0A0030CD074D08803AFF00F9
:10141C0080307F02031D142AFF304C02031C172A54
:10142C00182A262AFF3083120313CC000030CD007B
:10143C000030C1000030C0000030BF000030BE00E2
:10144C00831203134D08803AFF0080307F02031D86
:10145C00312A01304C020318342A352A422A8312CD
:10146C000313CC01CD010030C1000030C0000030AE
:10147C00BF000030BE00CB01831203134C08D20016
:10148C00521C492A4A2A4C2AC017502A7F30FF0086
:10149C007F08C0055208C2000310420CC100F2289C
:1014AC00080073088039F800730883120313A00036
:1014BC002007FA00F21F632A642A652A7A147A0834
:1014CC000319692A6A2A7A2A7A0A031D6E2A6F2A54
:1014DC00772A0030F3000030F2000030F1000030C9
:1014EC00F000F217F301822A0030F3000030F20012
:1014FC000030F1000030F00077088039F9007908ED
:10150C00780603198A2A8B2A8C2A78177708A00068
:10151C002007F900F61F932A942A952A7914790842
:10152C000319992A9A2AAA2A790A031D9E2A9F2A04
:10153C00A72A0030F7000030F6000030F50000302C
:10154C00F400F617F701B22A0030F7000030F6006D
:10155C000030F5000030F4007A0879020318B72A3D
:10156C00B82ADE2A781FBB2ABC2AC02A8030FF008A
:10157C007F08F8067A08FB007908FA007B08F90066
:10158C007008FB007408F0007B08F4007108FB0085
:10159C007508F1007B08F5007208FB007608F20074
:1015AC007B08F6007308FB007708F3007B08F70054
:1015BC00FB017908A000A1012108A3007A082002F0
:1015CC00A200031CA3032308803AFF0080307F0293
:1015DC00031DF22A1A302202031CF52AF62A2F2B9D
:1015EC007308720471047004031DFD2AFF2A013074
:1015FC00002B0030FB000030F3000030F200003014
:10160C00F1000030F0007908FA00352B7B1C0F2B11
:10161C00102B192B7B0883120313A0000310200C32
:10162C000138FB001B2B0310FB0C701C1E2B1F2BFB
:10163C00202BFB17013083120313A000730DF30C46
:10164C00F20CF10CF00CA00B242B0130FF007F08E6
:10165C00FA0779087A02031C342B352B0C2B781BD8
:10166C00382B392B862B7A08031D3D2B3E2B472B11
:10167C000030F3000030F2000030F1000030F000D8
:10168C00BA2C7408F007750803110318013E0319EE
:10169C00502BF107760803110318013E0319572B41
:1016AC00F207770803110318013E03195E2BF307A9
:1016BC00731C612B622B3E2C7B1C652B662B6F2BBA
:1016CC007B0883120313A0000310200C0138FB00CD
:1016DC00712B0310FB0C701C742B752B762BFB17CA
:1016EC00013083120313A000730DF30CF20CF10CF8
:1016FC00F00CA00B7A2B0130FF007F08FA073E2C70
:10170C007308803AFF007708803A7F02031D982BFC
:10171C0076087202031D982B75087102031D982B15
:10172C007408700203189B2B9C2BF62BFF30831232
:10173C000313A000FF30A100FF30A200FF30A30074
:10174C007408A4007508A5007608A6007708A70001
:10175C007008A4027108031C710FB52BB62BA502DF
:10176C007208031C720FBB2BBC2BA6027308031C44
:10177C00730FC12BC22BA7022408A007250803183E
:10178C00250FC92BCA2BA10726080318260FCF2B10
:10179C00D02BA20727080318270AA3072308F30056
:1017AC002208F2002108F1002008F0008030FF0030
:1017BC007F08F806FB09FB0A7B08031DE62BE72BC9
:1017CC00042C0130F007003003180130F107003011
:1017DC0003180130F207003003180130F307042C12
:1017EC007408F0027508031C750FF1027608031CCF
:1017FC00760FF2027708031C770FF302730872045A
:10180C0071047004031D0B2C0C2C3A2C7B08031D4B
:10181C00102C112C3A2C0030F3000030F200003068
:10182C00F1000030F000BA2C013083120313A00039
:10183C000310F00DF10DF20DF30DA00B1E2CFB1F80
:10184C00282C292C2A2C70147B1C2D2C2E2C312C62
:10185C000314FB0D332C0310FB0D7A080319372CE2
:10186C00382C3A2C0130FA02F21F3D2C3E2C1A2C4B
:10187C00F901FB1F422C432C512C7B087F39031997
:10188C00482C492C4C2CF901F90A512C701C4F2C6A
:10189C00502C512C492C79080319552C562C8C2C76
:1018AC000130F007003003180130F1070030031845
:1018BC000130F207003003180130F307731C672C5A
:1018CC00682C8C2C700883120313A0007108A100E3
:1018DC007208A2007308A3000130A400230DA30C0E
:1018EC00A20CA10CA00CA40B742C2308F30022084E
:1018FC00F2002108F1002008F0007A0A0319872C65
:10190C00882C8C2C0130FF007F08FA077A0A031907
:10191C00902C912C962C7A08031D952C962CA42C8B
:10192C000030F3000030F2000030F1000030F00025
:10193C007A08031DA22CA32CA42CF8017A1CA72C2A
:10194C00A82CAA2CF217AE2C7F30FF007F08F205D2
:10195C007A0883120313A0000310200CF300F81F65
:10196C00B82CB92CBA2CF3170800831203132308D4
:10197C008039AD002308A8002807B300A21FC72C8C
:10198C00C82CC92C331433080319CD2CCE2CDD2CC8
:10199C00330A031DD22CD32CDB2C0030A3000030D7
:1019AC00A2000030A1000030A000A217E52C0030EE
:1019BC00A3000030A2000030A1000030A0002708D6
:1019CC008039FF007F08AD062708A8002807B20061
:1019DC00A61FF12CF22CF32C321432080319F72C1D
:1019EC00F82C072D320A031DFC2CFD2C052D003084
:1019FC00A7000030A6000030A5000030A400A617F8
:101A0C000F2D0030A7000030A6000030A5000030DC
:101A1C00A40032080319132D142D192D3308031D9E
:101A2C00182D192D222D0030A3000030A2000030FB
:101A3C00A1000030A000FF2F2008F00026080A1695
:101A4C008A1581270A128A15710883120313B900AB
:101A5C007008B8003808A800A901AA01AB012B082E
:101A6C00B1002A08B0002908AF002808AE003908D8
:101A7C00A800A901AA01AB012B08B7002A08B600DF
:101A8C002908B5002808B4002108F00025080A161A
:101A9C008A1581270A128A15710883120313B9005B
:101AAC007008B8003808A800A901AA01AB012808E1
:101ABC00AE07290803110318013E0319662DAF0761
:101ACC002A0803110318013E03196D2DB0072B08CA
:101ADC0003110318013E0319742DB1073908A8002E
:101AEC00A901AA01AB012808B4072908031103189E
:101AFC00013E0319822DB5072A0803110318013E74
:101B0C000319892DB6072B0803110318013E03197D
:101B1C00902DB7072208F00024080A168A15812791
:101B2C000A128A15710883120313B9007008B800E1
:101B3C003808A800A901AA01AB012808AE0729089A
:101B4C0003110318013E0319AC2DAF072A0803112A
:101B5C000318013E0319B32DB0072B08031103180A
:101B6C00013E0319BA2DB1073908A800A901AA0131
:101B7C00AB012808B407290803110318013E031907
:101B8C00C82DB5072A0803110318013E0319CF2DE0
:101B9C00B6072B0803110318013E0319D62DB707FE
:101BAC000830A8000310AE0DAF0DB00DB10DA80B91
:101BBC00D82D2108F00024080A168A1581270A124C
:101BCC008A15710883120313B9007008B80038081D
:101BDC00A8003908A900AA01AB012808AE072908FA
:101BEC0003110318013E0319FC2DAF072A0803113A
:101BFC000318013E0319032EB0072B080311031819
:101C0C00013E03190A2EB1072008F00025080A1618
:101C1C008A1581270A128A15710883120313B900D9
:101C2C007008B8003808A8003908A900AA01AB014F
:101C3C002808AE07290803110318013E0319272EA3
:101C4C00AF072A0803110318013E03192E2EB00703
:101C5C002B0803110318013E0319352EB107083068
:101C6C00A8000310AE0DAF0DB00DB10DA80B372EA3
:101C7C002008F00024080A168A1581270A128A15F2
:101C8C00710883120313B9007008B8003808A80053
:101C9C003908A900AA01AB012808AE0729080311CD
:101CAC000318013E03195B2EAF072A080311031812
:101CBC00013E0319622EB0072B0803110318013ED5
:101CCC000319692EB1072108F00026080A168A1597
:101CDC0081270A128A15710883120313B900700840
:101CEC00B8003808A8003908A900AA01AB012808D7
:101CFC00B407290803110318013E0319862EB507F2
:101D0C002A0803110318013E03198D2EB6072B0860
:101D1C0003110318013E0319942EB7072208F00093
:101D2C0025080A168A1581270A128A15710883124A
:101D3C000313B9007008B8003808A8003908A900C6
:101D4C00AA01AB012808B407290803110318013EA6
:101D5C000319B12EB5072A0803110318013E031904
:101D6C00B82EB6072B0803110318013E0319BF2E1A
:101D7C00B7072208F00026080A168A1581270A12CE
:101D8C008A15710883120313B9007008B80038085B
:101D9C00A8003908A900AA01AB0108300310A80D4E
:101DAC00A90DAA0DAB0DFF3E031DD42E2808B407B8
:101DBC00290803110318013E0319E52EB5072A085B
:101DCC0003110318013E0319EC2EB6072B0803115F
:101DDC000318013E0319F32EB7072E08A8002F088D
:101DEC00A9003008AA003108AB0018300310AB0C66
:101DFC00AA0CA90CA80CFF3E031DFC2E2808B40746
:101E0C00290803110318013E03190D2FB5072A08E1
:101E1C0003110318013E0319142FB6072B080311E5
:101E2C000318013E03191B2FB7070830A800031035
:101E3C00AE0DAF0DB00DB10DA80B1D2F3308320731
:101E4C00A800A901A90D2808823EB800290803188A
:101E5C00013EFF3EB9004F2F0130A8000310B40D16
:101E6C00B50DB60DB70DA80B342FB11F3E2F3F2F5C
:101E7C00402F34140130A8000310AE0DAF0DB00D7F
:101E8C00B10DA80B422FFF30B8070318B90AFF3069
:101E9C00B907B61F522F532F322FB201B11F572F34
:101EAC00582F742FFF302E05A800FF302F05A900E6
:101EBC00FF303005AA007F303105AB002B082A0417
:101ECC002904280403196B2F6C2F6F2FB201B20A4F
:101EDC00742F341C722F732F742F6C2F320803192C
:101EEC00782F792FAA2F0130B40700300318013056
:101EFC00B507003003180130B60700300318013065
:101F0C00B707371C8A2F8B2FAA2F3408A800350847
:101F1C00A9003608AA003708AB000130AC002B0D25
:101F2C00AB0CAA0CA90CA80CAC0B952F2B08B7006A
:101F3C002A08B6002908B5002808B4000130B807F3
:101F4C000318B90A0030B9073908803AFF0080300D
:101F5C007F02031DB32FFF303802031CB62FB72F9F
:101F6C00C22F7F3083120313B7008030B6000030CD
:101F7C00B5000030B400F32F831203133908803AF4
:101F8C00FF0080307F02031DCD2F01303802031873
:101F9C00D02FD12FDD2F003083120313B700003068
:101FAC00B6000030B5000030B400AD01F32F831241
:101FBC0003133808B300FF30B405FF30B5057F308C
:101FCC00B6050030B705331CEC2FED2FEE2FB617EE
:101FDC003308A8000310280CB7002D08FF007F0859
:101FEC00B7043708A3003608A2003508A10034084E
:101FFC00A0000800FF1B0A2883137F188317000812
:10200C00840A0319FF0A080010308A000408840AA5
:10201C008207003456346F346C3474346134673452
:10202C0065343A34203425342E3432346634563404
:10203C0000344C34693474346834693475346D3418
:10204C00203450346F34773465347234003469344E
:0E205C006E34663400346E3461346E340034F9
:1020700083120313A300A101A20154282008F90030
:10208000FA017908F0007A08F1007808F2000A16DF
:102090008A1120210A168A11013083120313A10725
:1020A0000318A20A0030A20721082307F9007908C3
:1020B000840083170008A0002008031D6028612801
:1020C0003E280800F300701866286A28831203135C
:1020D00009156D288312031309117308F03988005C
:1020E0008914A630F100F10B73280000831203134A
:1020F000891073080F39F10003300310F10DFF3E12
:10210000031D7D280310710D88008914A630F1008D
:10211000F10B882800008312031389101B30F20092
:102120009E30F100F10B9228F20B9228000008007B
:1021300083120313A700FD1F9E289F28A128FC01DE
:10214000FD01A501A601B9282030F0000030F10002
:10215000831203132708F2000A168A1120210A1697
:102160008A11013083120313A5070318A60A003051
:10217000A6072608803AA4007D08803A2402031DA1
:10218000C3287C082502031CC628C728A42883125C
:1021900003132708F8007B080A168A1138200A164C
:1021A0008A11080000307005F80000307105F90050
:1021B00080307205FA007F307305FB007B087A04DB
:1021C00079047804031DE528E628EE280030F300A2
:1021D0000030F2000030F1000030F00000307405F3
:1021E000F80000307505F90080307605FA007F3080
:1021F0007705FB007B087A0479047804031D012924
:1022000002290A290030F7000030F6000030F500FE
:102210000030F40077087306031D1829760872064B
:10222000031D182975087106031D18297408700606
:1022300003191B291C291E2903101F290314080038
:1022400072080319242925292A297208031D29291E
:102250002A29312970080A128A1106200A168A11C1
:1022600077297208093E840083130008F300840A6A
:102270000008F4007308740403193F2940295E29FB
:102280007208093E84000008F300840A0008F40084
:102290007208023E84000008F500840A0008F60077
:1022A0007608803AF7007408803A7702031D5A29AD
:1022B0007308750203185D295E2977297208023EAA
:1022C000840083130008F300720884000008730779
:1022D000F400740884007008831780007208023EBE
:1022E0008400013083138007840A0318800A0800E1
:1022F000FB00F901FA017B088400831300088400C5
:102300000A168A110A200A168A112A3A031D8929F7
:102310008A29BA290130FF007B0884007F088007E2
:10232000760884000008FF00023080077F088400E0
:102330000008F900840A0008FA00CB297A08F100A5
:102340007908F0000A30F2000030F3000A168A150E
:1023500036270A168A1178087007F900003003182A
:1023600001307107FA000130FF007B0884007F080C
:10237000831380077B088400000884000A168A11F2
:102380000A200A168A11D03EF8000A307802031C8F
:10239000CA29CB299E297A08F7007908F600080097
:1023A000C330F500CD30F400F40BD429F50BD4295B
:1023B000F00133300A168A1162200A168A111B3086
:1023C000F5009E30F400F40BE329F50BE32900003F
:1023D000F00133300A168A1162200A168A11A630DB
:1023E000F400F40BF1290000F00133300A168A11D1
:1023F00062200A168A11FC29FD290000F001023032
:102400000A168A1162200A168A11A630F400F40B0B
:10241000072A0000F00128300A168A1162200A16E5
:102420008A11A630F400F40B132A0000F0010130E9
:102430000A168A1162200A168A110430F5003D300E
:10244000F400F40B212AF50B212A262AF0010C3086
:102450000A168A1162200A168A11A630F400F40BBB
:102460002F2A000008008316031730088312031375
:10247000A500831603172F0883120313A4008316E5
:1024800003172E0883120313A300831603172D08C6
:1024900083120313A2007308A5007208A400710838
:1024A000A3007008A2002208F4002308F500240805
:1024B000F6002508F70017300310F70CF60CF50CA2
:1024C000F40CFF3E031D5C2AFF307405A0000030B1
:1024D0007505A10020082104031D6F2A702A932A84
:1024E0002208F4002308F5002408F6002508F70068
:1024F00001300310F40DF50DF60DF70DFF3E031D31
:10250000792A7708760475047404031D882A892AB9
:102510008E2A0230F0000030F100BF2A0330F000B4
:102520000030F100BF2A200A2104031D982A992AAD
:10253000BB2A2208F4002308F5002408F600250829
:10254000F70009300310F40DF50DF60DF70DFF3E01
:10255000031DA22A77087604750474040319B12AAE
:10256000B32A0130B42A0030F800F9017808F000ED
:102570007908F100BF2A0430F0000030F1000800B3
:102580000030831203133A05C20000303B05C3003C
:1025900080303C05C4007F303D05C500450844043B
:1025A00043044204031DD52AD62ADE2A0030BD008A
:1025B0000030BC000030BB000030BA0000303E05E7
:1025C000C20000303F05C30080304005C4007F30AA
:1025D0004105C5004508440443044204031DF12A93
:1025E000F22AFA2A0030C1000030C0000030BF00DB
:1025F0000030BE00BD1FFD2AFE2A222B0030C20083
:102600000030C3000030C4008030C5003A08C20268
:102610003B08031C3B0F0D2B0E2BC3023C08031C75
:102620003C0F132B142BC4023D08031C3D0F192B28
:102630001A2BC5024508BD004408BC004308BB0076
:102640004208BA00C11F252B262B4A2B0030C2009E
:102650000030C3000030C4008030C5003E08C20214
:102660003F08031C3F0F352B362BC3024008031CC9
:10267000400F3B2B3C2BC4024108031C410F412B54
:10268000422BC5024508C1004408C0004308BF00F2
:102690004208BE008030BD068030C10641083D02C0
:1026A000031D5C2B40083C02031D5C2B3F083B02D2
:1026B000031D5C2B3E083A0203185F2B602B622B34
:1026C0000310632B03140800831603172C088312CE
:1026D0000313E700831603172B0883120313E60086
:1026E000831603172A0883120313E50083160317C2
:1026F000290883120313E4005708E7005608E60090
:102700005508E5005408E4006408D8006508D900BD
:102710006608DA006708DB0017300310DB0CDA0C00
:10272000D90CD80CFF3E031D8D2BFF305805DC0063
:1027300000305905DD005C08813EE2005D080318A9
:10274000013EFF3EE3006308803AFF0080307F02D5
:10275000031DAC2B17306202031CAF2BB02BB12B27
:10276000722C83120313E31BB62BB72B272C620AA0
:10277000FF00FF30D800FF30D9007F30DA00003092
:10278000DB00C72B5B0DDB0CDA0CD90CD80CFF0B74
:10279000C22B5B08E1005A08E0005908DF00580826
:1027A000DE005E086405D8005F086505D900600892
:1027B0006605DA0061086705DB005B085A04590406
:1027C0005804031DE42BE52BE62BB02B6408D8003E
:1027D0006508D9006608DA006708DB001F300310BF
:1027E000DB0CDA0CD90CD80CFF3E031DEF2B5B0879
:1027F0005A04590458040319FE2BFF2B162C5E08AB
:10280000E4075F0803110318013E0319082CE507CC
:10281000600803110318013E03190F2CE607610835
:1028200003110318013E0319162CE7075E09D800AF
:102830005F09D9006009DA006109DB005808E40586
:102840005908E5055A08E6055B08E7056A2C64089F
:10285000D8006508D9006608DA006708DB001F3079
:102860000310DB0CDA0CD90CD80CFF3E031D302C06
:102870005B085A0459045804031D3F2C402C492C72
:102880000030E7000030E6000030E5000030E400F2
:102890006A2C6408D8006508D9006608DA00670861
:1028A000DB0001300310D80DD90DDA0DDB0DFF3E32
:1028B000031D522C5B085A04590458040319612C57
:1028C000622C6A2CBF30E7008030E6000030E50063
:1028D0000030E4006708D7006608D6006508D50018
:1028E0006408D400080083160313B300C6018312E2
:1028F00003136B0883160313CC00831203136A08B7
:1029000083160313CB008312031369088316031382
:10291000CA0083120313680883160313C9004C0806
:1029200083120313BD00831603134B088312031392
:10293000BC00831603134A0883120313BB008316DB
:102940000313490883120313BA000030C10000309A
:10295000C0000030BF000030BE000A168A11C0223D
:102960000A168A110318B52CB62CD12C8316031322
:10297000C601C60A4C08F3004B08F2004A08F100F1
:102980004908F0000A168A15C3260A168A11730828
:1029900083160313CC007208CB007108CA007008BC
:1029A000C90083160313C701C80183160317320831
:1029B00083160313B7008316031731088316031316
:1029C000B60046080319E52CE62CF62C4608031D34
:1029D000EA2CEB2CF02C2B30AA000030AB00F42CAE
:1029E0002D30AA000030AB002A08C6004C08F300C6
:1029F0004B08F2004A08F1004908F0000A168A1153
:102A000033220A168A1170037104031D082D092D43
:102A1000402D83160313460803190F2D102D202D6A
:102A20004608831203179000FF3083160313B6077E
:102A30000318B70AFF30B7070130C7000030C800DD
:102A40001E30F0004708103E0A128A1107200A16AD
:102A50008A11FD3083160313B6070318B70AFF3037
:102A6000B7071030FB003708FD003608FC003308BC
:102A70000A168A1198200A168A110A128A11EA2F58
:102A8000831603134C08F3004B08F2004A08F100C8
:102A90004908F0000A168A1133220A168A117008B2
:102AA0007104031D542D572D0A128A11DA2883163A
:102AB0000313460803195D2D5E2D6E2D4608831203
:102AC00003179000FF3083160313B6070318B70AE5
:102AD000FF30B7070130C7000030C8002230F000D7
:102AE0004708103E0A128A1107200A168A11FD3083
:102AF00083160313B6070318B70AFF30B707103061
:102B0000FB003708FD003608FC0033080A168A115E
:102B100098200A168A113D2D83160313D7008312BD
:102B200003136D0884008313000884000A168A11B9
:102B30000A200A168A11253A031D9F2DA02D8D2EDD
:102B40000130FF006D0884007F088007831603179B
:102B5000B101B2010310003003180130B500FF309D
:102B6000B300FF30B400831203136D088400000823
:102B700084000A168A110A200A168A112E3A031DA9
:102B8000C22DC32DD72D0130FF006D0884007F08B2
:102B900080076E08F6006D080A168A1178210A1659
:102BA0008A11770883160317B4007608B3008312DE
:102BB00003136D0884008313000883160313D900E0
:102BC000590884000A168A110A200A168A11D800A8
:102BD000F32D0130FF007F08D907FE2D6C30D8009F
:102BE000FE2DD801FE2D58084C3A0319E92D2A3A3A
:102BF0000319EE2D0A3A0319E92DF12D5908840025
:102C00000A168A110A200A168A11663A031D092E2D
:102C10000A2E832E3B2E831203136E0884000008B5
:102C2000FF00043080077F08840000088316031328
:102C3000D300840A0008D400840A0008D500840A5E
:102C40000008D600432E831203136E088400000888
:102C5000FF00043080077F088400000883160313F8
:102C6000D300840A0008D400840A0008D500840A2E
:102C70000008D600432E58084C3A0319232E203A58
:102C800003190B2E432E831203136D088400831641
:102C900003135908013E8000782E5608831203134F
:102CA000EB0083160313550883120313EA008316FF
:102CB0000313540883120313E90083160313530804
:102CC00083120313E80083160313590884000A16BD
:102CD0008A110A200A168A1183120313EC00831644
:102CE000031357080A168A1173240A168A11A62E8E
:102CF000590884000A168A110A200A168A11663AAF
:102D000003194D2E832E0130FF00831203136D082B
:102D100084007F0883138007A62E6D0884000008B6
:102D200084000A168A110A200A168A1183160313D0
:102D3000D100D2015108F0005208F1005708F2000A
:102D40000A168A1120210A168A11832E08000A16F3
:102D50008A15CE260A168A111030F4008030F5004C
:102D60008230F6000A168A15D1270A168A110A122D
:102D70008A1500200A168A11710883160317A40009
:102D80007008A300443083120313BD007F30BC00E1
:102D9000C030BB000030BA004030A300A030A20019
:102DA0000030A1000030A000831603172308F000B4
:102DB0002408F100F201F30100300A128A112220E6
:102DC0000A168A11730883120313A7007208A6005B
:102DD0007108A5007008A4000A128A15BB240A16FF
:102DE0008A11831203132308C1002208C00021089E
:102DF000BF002008BE000A128A1588200A168A1110
:102E0000831203133D0883160317A80083120313CC
:102E10003C0883160317A700831203133B0883168D
:102E20000317A600831203133A0883160317A5009D
:102E3000413083120313A300A030A2000030A10090
:102E40000030A00083160317280883120313A7007D
:102E500083160317270883120313A600831603178C
:102E6000260883120313A50083160317250883126F
:102E70000313A4000A128A15BB240A168A118312AE
:102E80000313230883160317A800831203132208D1
:102E900083160317A7008312031321088316031751
:102EA000A60083120313200883160317A5004230DF
:102EB00083120313BD00C830BC000030BB000030DB
:102EC000BA0083160317280883120313C100831660
:102ED0000317270883120313C0008316031726085D
:102EE00083120313BF0083160317250883120313ED
:102EF000BE000A168A11C0220A168A110318812FF1
:102F0000822F8D2F423083160317A800C830A700E8
:102F10000030A6000030A500C02F83160317280834
:102F200083120313BD0083160317270883120313AC
:102F3000BC0083160317260883120313BB008316F5
:102F40000317250883120313BA000030C1000030B4
:102F5000C0000030BF000030BE000A168A11C02237
:102F60000A168A110318B52FB62FC02F003083160A
:102F70000317A8000030A7000030A6000030A5000D
:102F8000013083160313DE00831603172808831607
:102F90000313E20083160317270883160313E100C7
:102FA00083160317260883160313E00083160317FE
:102FB000250883160313DF0093300A168A15F126BD
:102FC0000A168A119330F4000130F500C030F60083
:102FD0000A168A15D1270A168A110D30831603178F
:102FE0009200AF309100B5309000900BF52F910B0F
:102FF000F52F920BF52FFC2FB72E0A128A110028FD
:103D600064008001840A0406031900340406B12E9D
:103D7000831603138801091189100A168A11D021AC
:103D80000A168A1508007308720471047004031976
:103D9000CA2ECB2ECD2E8030F30608000A168A15C7
:103DA000B8260A168A154130831203139F008E30FD
:103DB000831603139F000800F31BDF2EE02EE12E75
:103DC000F02E7009F0007109F1007209F200730918
:103DD000F300F00A0319F10A0319F20A0319F30AAE
:103DE000080083160313E300DF30E4006308E500F6
:103DF000E701E801EE01EF015E08DA00E430DB00E4
:103E0000E5300A168A15A8270A168A1583160313A1
:103E10006708630783120313EF006F08840083179A
:103E200080010800803083120313BD064108F300AF
:103E30004008F2003F08F1003E08F0003D08F7009E
:103E40003C08F6003B08F5003A08F4000A128A150F
:103E500057220A168A15730883120313BD007208CD
:103E6000BC007108BB007008BA000800F401F5013D
:103E7000701C3B2F3C2F422F7208F4070318F50AE1
:103E80007308F50701300310F20DF30DFF3E031D1B
:103E9000432F01300310F10CF00CFF3E031D4A2F9D
:103EA00070087104031D552F562F382F7508F10027
:103EB0007408F0000800F4007008F6007408F500BB
:103EC000722F7608840083170008F3000130FF008A
:103ED0007F08F60775088400730880000130FF0032
:103EE0007F08F5070130F1020030031CF203F202F3
:103EF000710A031D7F2F720A031D7F2F802F612FF0
:103F00000800F800F401F5017008F200F3017208EE
:103F1000F6007308F700781C8E2F8F2F952F7608E8
:103F2000F4070318F50A7708F50701300310F60DBA
:103F3000F70DFF3E031D962F0310F80C7808031DA4
:103F4000A22FA32F8B2F7508F1007408F000080032
:103F500083160313DC005A08DD00C02FDD30831206
:103F60000313ED00831603135B0883120313EE00A3
:103F7000831603135C080A168A118C250A168A1503
:103F8000831603135D0884000A168A110A200A1694
:103F90008A15003A031DCD2FCE2FAE2FDA01DB019B
:103FA0000800F00176080A168A1162200A168A159E
:103FB000EF2FF001F00A7508FF00740884000A165C
:103FC0008A1100200A168A150A168A1162200A161A
:103FD0008A150130F4070318F50A0030F507750853
:103FE00083120313FF00740884000A168A1100204C
:103FF0000A168A15003A031DFE2FFF2FD92F08003D
:02400E00FB3F76
:00000001FF
